:400000000040002011000000550200005502000010B500F0C7FE00F0F5F900F023F9000070B572B61C4A1D4B1D491A6002231D4A1D4D13601D4A182011601D4A00241360CB
:4000400010221C4B1A6080221B4B92011A6012232B6000F039FE8022184B52011A60184A184B19491A604022184B0D201C60184B1A6000F05DFD0D2000F086FD154B200049
:400080001C6000F097FE112303222B60124B1A60124B1D321A6070BD99EE000000030240B10D00000003044030001040080304401803044000060440080604400003014052
:4000C00040FF008000000140410E000028000340040101400C02224030003040000E3F40000000000000000000000000000000000000000000000000000000000000000063
:4001000010B5064C2378002B07D1054B002B02D0044800E000BF0123237010BD6001002000000000B0140000084B10B5002B03D00749084800E000BF07480368002B00D1FE
:4001400010BD064B002BFBD09847F9E70000000064010020B0140000B80000200000000010B500F0BDFE002802D14022024B1A6000F09CFBFEE7C046B0000020F0B51700F9
:400180008022C1B005000E0052000021684601F082F900242C552000390001F041F96A46735C1355802301345B009C42F2D1002280241300FF2664006946E85CC95C821894
:4001C00052183240A9180F78EF5401330870A342F2D141B0F0BDF7B58B18002214000193019B994215D0FF23FF2501341C4006193378D2182A4087183D783570FF253B7074
:400200003678F3182B40C65C0B7873400B700131E6E7F7BDF0B515008022C1B004000E005200002168461F0001F035F9002C0DD0002D0BD03A0029006846FFF79FFF684672
:4002400032002100FFF7C7FF002001E00120404241B0F0BD10B501F0E9F803680C2B00D1FEE7FEE7F8B500250F49104B01394A1C14D000221F685C689E68A018B24203D05E
:40028000B858A0500432F8E70200DE68141AA64201D020C2FAE710330139E8E701F0CCF8FFF75EFFFEE7C04601000000FC140000002370B50B480C4C0C4D9A002100032BB2
:4002C00000D8A958013381502C2BF6D1FFF7A8FE074B1A68002A00D11A608022054B92051A6070BD000000205502000000000000B000002008ED00E0004770B506000D0052
:400300001400002802D0002000F05CFC00207519002C05D0013C2B191B78C018C0B2F7E770BDFF23020070B59A43C0B01300541C6A46FF34D51A1E78EE540133A342FAD188
:40034000C3B2D45C8C4205D0000AD15480B2110000F042FB40B070BD013810B50B2830D80902494200F0C2FF06080A0C0E10141216191B20174B13E0174B16E0174B0AE02E
:40038000174B12E0174B0BE0174B09E0174B02E0174B00E0174BC91817E0174B05E0174BC9180878C0B214E0154BC9180A7848788C780002230418430300C8781343000677
:4003C00006E0002000F0FEFB00210B7848780002184310BDC0FF0100C1FF0100C5FF0100C9FF0100D0FF0100D1FF0100D6FF0100D2FF0100D4FF0100D8FF0100DCFF0100A0
:40040000E0FF01000C4B10B51A68102313400B4A00D113601368802B0DD10024022021001460FFF799FFA04205D021000220FFF793FFFFF761FF10BD54000340B0000020A6
:40044000F8B5010004000320FFF786FF210006000420FFF781FF210007000620FFF77CFF0025012828D021000320FFF775FF01363602F7192E0001300002B84209D2037888
:400480005A1ED2B2FD2A00D80126ED18EDB20130F3E721000120FFF75FFF6D42EBB20625834209D1002E07D0044B24026042C0180121FFF736FF00252800F8BDD1FF0100AB
:4004C000F0B5C14CA54400F023FD62B6002700970197962103AC46ADFF2322004900280000F01EFD0028F4D12188062900D890E02A780423012A5AD16E88F21D8A4200D9F4
:4005000089E0962149008A4200D984E0AA199279172A4CD1F3189BB2002B08D0DCAAAB49D21852181278013B801880B2F3E7AB195A7940421B79120280B21A43082382424B
:4005400035D16AE0342B00D0D1E0009B012B60D1032E5ED180220021520091A8802700F09AFF7F00182191ABD819FF3102ABF21EC91800F087FF0423F619FF33B6B29E429C
:4005800000D01BE116228B21FF3202AB9B18490002AA521810781B78000218438C4B0700984200D824E1FF3BFF3B00930933002546A8012143702B0AC370002302AA0632F4
:4005C0000170291D1580857089B2002909D0DCAC7E4E6418A419247801391B199BB289B2F3E7DCA97B4C49195B420C199BB22370794C1B0A0C192370784B0735C918172378
:400600000B70A9B27F3300F0BCFC62E7009B012B45D00423CBE70323C9E76B782C79180031380A282ED96E4A1568002D26D0009A012A25D106AC02AA13725681002147AE91
:400640000C222000059600F026FFA660210004A8A8472623A588FF339D4202D9A368B34207D0A268002A01D1002D04D12368DBB29EE70E239BE70E23150099E7052397E7BD
:40068000052394E700F03CFEC2FF1600CFFF5EFF3900CFFF3E0051005EFF70008900002EB7D13000FFF7CCFE434243412B713300009D7DE7009B012BABD1012EA9D1002CE8
:4006C000A7D1484B1B681B685A0CD2B2002A02D1DB03DB0D01E080239B002B711B0A6B71FF23AB71FE3BEB710023042560E7009B012B8ED1022E8CD934E7009B012B88D124
:400700000027E6E6009B012B83D12C33F519FF339D4200DD7FE791ABD819320047A900F0B1FE0023AFB21D0042E7731E1F2B0DD800232C48B34207DAEA18011D14795A5CA2
:4007400062405A540133F5E7254B1E7106AB1900254A002711CA11C147AA03CB03C20123082500933B0023E7009B012B00D050E7032E00D04DE716228B21FF3202AB9B18E8
:40078000490002AA521816781B7836021E43104B9E4265D9F63BFF3B09E70020FFF750FE002802D18022114B1A6000250C4B1D7100F0B2FB00F008FA0423F9E6012300278B
:4007C000009302333D00F3E68CFCFFFFA7FDFFFFFF010000ACFDFFFFADFDFFFFAEFDFFFF7C010020BC000020B4140000B00000202B4D2B6819680B0AC9B29BB2002901D087
:4008000001339BB26402381984B29C421ED3019B002B0BD180221900520006A800F03BFE06A9204800F0D8F8012301931E4B1B79002B05D080212A1D490091A8FFF7EAFC22
:4008400091A9200000F0C8F8002804D00123002700930933B6E70123070000930300B1E7802261028919090252000020FFF745FD0500002C0ED10B4B9E420BD1210005209E
:40088000FFF76AFD21002D1A0620FFF765FDEDB22D1AEDB26D4246AB1D710023012587E6BC000020FF0100007C01002070B50020FFF7C6FD431E98410624134D40422B683C
:4008C00004401A68C021C03A0020FFF716FD6B6A1B78181AC0B2834203D12B681B68002B02D1002000F06EF9084B19681A00402901D0002C03D000231360FFF7E1FD8022CB
:400900001A6000F061F970BDBC000020B000002082B06A460B4B0C4900930C4B01930C4B1A600C4A1160C0461A68120F0F2A04D01A680020120F0A2A01D01868C0B202B055
:400940007047C046B6E9000016000080840100200800104004001040094B0A4A0A491A600A4A1160C0461A68120F0F2A04D01A680020120F0A2A01D01868C0B27047C046CD
:4009800008001040B6E80000150000800400104082B06A460B4B0C4900930C4B01930C4B1A600C4A1160C0461A68120F0F2A04D01A680020120F0A2A01D01868C0B202B093
:4009C0007047C046B6EA000017000080840100200800104004001040F0B50024304BC7B0029406000394984255D8A14253D0802206A8520000F046FD2A4B2B4D0493FF233C
:400A00002A492B4A04AF7B602F600A60C0462A680191120F0F2A03D02A68120F0A2A01D02C681C400294029B002B36D100F069FA0400FFF76DFF0390039B002B02D1FFF705
:400A40008BFF0290029B002B16D11A4A1A490492049A0198360416430496134A2F600160C0462968090F0F2903D01168090F0A2901D01368DBB20293039B002B07D1FFF71A
:400A800087FF0390039B002B01D0039B0293200000F03BFA01E004230293029847B0F0BDFF010000B6D70000080010400400104004000080B6D800000500008070B5050036
:400AC00000F01FFA0400102D04D803210E4A13688B4307E0202D07D803210B4A13688B4302390B4313600AE0302D05D80321064A13688B430139F4E7002000F063F82000B9
:400B000000F003FA70BDC04630001040024A034B11680B401360704700002240FFFFFFBF024B18684000C00F7047C046000022401B2800D901BE034B8000C31818681960F7
:400B40007047C04640000020F8B504000E00032900D901BE1B2C00D901BE032725003D40BD400635AF40AE4000F0CBF9A408054BA400E4182368BB431E43266000F0C5F9A7
:400B8000F8BDC04600E400E01F2318401E3B8340014A13607047C04600E100E01F2318401E3B8340014A13607047C04680E100E01F2318401E3B8340014A13607047C04621
:400BC00080E200E001BE7047034A044913689BB20B4313607047C0460CED00E00400FA0570B5802504002D02064BAC4205D9586800F07EF9044BE418F6E79868604300F085
:400C000077F970BDE40000200080FFFF37B500F0C3F8002842D000F074F91C21204B214A1B6812689B008A400B40920F1833D34080251D491D4A04000868ED0110401C4A1E
:400C40005A435219D20B013A0243192B01D8194B0EE0194D19481818EB18A0251A3B00781B786D031B182A43FF2B00D9FF239B051A43134D0A602B6830200193FFF71EFFFB
:400C80008021104AC905136814200B431360FFF7A7FF019B20002B6000F037F937BDC046080F0340280003400800224000F800C040420F000000D43FBC1400004DF3FF0F55
:400CC0003000104000002240F7B50500183D0400182D46D80126244B3700EB409F4340D100F00FF90190FFF71BFF0097002802D0FFF70CFF009607271C4E1D4A33681D49F9
:400D0000BB4333601C4BE3181B78DBB213601B4A1368BB4313601A4B0A68E31818787F239A43034013430B60322000F0E1F8182C0ED033681C3CA408BB433C401C433460AE
:400D4000322000F0D5F83368AD08BB431D433560009B012B01D1FFF759FF019800F0D5F800E001BEF7BDC04611111101080F03400C0F0340180F03404DF3FF0F100F034085
:400D800034F3FF0F10B5034B1B7B584300F0B0F810BDC046E4000020014B1868C00F704700002240014A024B1A6070476588EDAC3800034070B5154D04002B68144E9B0FA3
:400DC0009B07984215D0032233687C20934333602B689B0F00D09030FFF7D4FF00F091F82B68A40F9B009B08A4071C432C6000F08CF803223368934319002B689A0F5342B0
:400E0000534101330B43336070BDC0460C0222401402224010B5040000F073F80549064A0B681440054A134023430B600B6800F06CF810BD1002224004040400FBFBFBFFEE
:400E4000042270B5224C2368134213D021490B6813420CD0204B5D6908681540A84308605969914359619B68002B00D098470420FFF7D0FF80232268DB001A4215D01549E2
:400E80000A681A420DD0144A556908682B40984308605169114B0B405361D368002B00D098478020C000FFF7B5FF80232268DB021A420CD0074A12681A4204D0064B1B6907
:400EC000002B00D098478020C002FFF7A3FF70BD10022240F80000209C010020FFFBFFFF024B1868C006C00F7047C046040604400230800803D001300238FCD1C046C04672
:400F00007047EFF3108072B6704780F31088704710B500F055F810BD10B500F05FF810BDF8B504000F0016000120002C28D0002926D00A255D4300F07FF8002810D000F0D7
:400F40007BF80500AB20FFF71DFF00F075F88542F5D13900AF4200D929003180651807E00120013DFFF73CFE002DE4D1102007E0AC4204D000F048F820700134F8E70020B3
:400F8000F8BD70B501230C001500002805D0002903D000F095F800232C80180070BD00008021064A10B5136809060B4313600820FFF7EAFD00F006F910BDC046000025405B
:400FC00010B5054C2378002B03D100F085F801232370FFF7E5FF10BDB401002010B50820FFF7DCFD00F000F9054A082013685B005B0813600022034B1A60FFF7D9FD10BD56
:4010000000002540880F2540084B094A196813680020994208D013680133412B00D103000449C85C1360C0B27047C046C8010020C401002011020020044B1868044B1A6837
:401040001B68904200D24130C01A7047C8010020C4010020134B144A30B515681C681900A54208D1114B1C681F232340082B02D00F4B186015E013680133402B00D100239F
:401080000C68A342FCD002210A4CC0B221600A4CE0541360094B1A680A4202D11A680A431A6030BDC0010020CC0100200802254040022540800F2540D0010020880F2540B2
:4010C00070B504004518AC4204D02078FFF7C2FF0134F8E770BD000070B50024072104251E4A1F4B08201A601E4B1F4A1C601F4B1A601F4B1F4A13601F4A11601F4A063910
:4011000014601F4A11601F4A13601F4B1C601F4B1D60FFF743FD03210820FFF715FD1C490820FFF705FD1B4B1C601B4B1C601B4B1C601B4B1C601B4B1D601B4B1C601A68DA
:401140001A4B1A801A4B1C601A4B1C601A4B1C701A4B1C601A4B1C6070BDC0460B000002000025404000254001000A00480025400700008000032540040325401003254026
:401180004400254000022540040225405000254011120000880E2540C80E2540480F2540080F2540C80F2540880F2540BC010020C8010020C401002010020020CC0100206C
:4011C000C0010020F021054A13688B4360390B431360034B1A88034B1A60704700030240BC010020880F2540F021064A13688B431360054B1A68E423DB001340034A13807A
:401200007047C04600030240880F2540BC010020254B70B51B68002B00D09847234B1B685B071CD520241F2021490B680133412B00D100231F4A15681F4AAB4203D113681E
:401240001E4B1C7004E012681D4DD2B2EA540B601C4B1B680342E8D104221B4B1A601B4B1B689B071FD51F20194C1A4A21681368994210D013680133402B00D100231649E3
:40128000164DC95CC9B229601360154B1B680340082BEBD104E00221124A13688B4313600222114B1A6070BDB8010020CC0F2540C8010020C4010020400325401002002013
:4012C0001102002008032540C00F25408C0F2540CC010020C0010020D00100204002254008022540880F2540800F254002B4714649084900095C49008E4402BC7047C04650
:4013000003B47146490840004900095E49008E4403BC7047002243088B4274D303098B425FD3030A8B4244D3030B8B4228D3030C8B420DD3FF22090212BA030C8B4202D3B5
:401340001212090265D0030B8B4219D300E0090AC30B8B4201D3CB03C01A5241830B8B4201D38B03C01A5241430B8B4201D34B03C01A5241030B8B4201D30B03C01A5241A7
:40138000C30A8B4201D3CB02C01A5241830A8B4201D38B02C01A5241430A8B4201D34B02C01A5241030A8B4201D30B02C01A5241CDD2C3098B4201D3CB01C01A52418309BC
:4013C0008B4201D38B01C01A524143098B4201D34B01C01A524103098B4201D30B01C01A5241C3088B4201D3CB00C01A524183088B4201D38B00C01A524143088B4201D3D3
:401400004B00C01A5241411A00D20146524110467047FFE701B5002000F006F802BDC0460029F7D076E770477047C046014B18687047C0465C0100200E4B70B500251E00E9
:401440000D4CE41AA410A54204D0AB00F35898470135F8E700F040F8084B00251E00084CE41AA410A54204D0AB00F35898470135F8E770BDE4140000E4140000E41400003E
:40148000EC140000002310B59A4203D0CC5CC4540133F9E710BD03008218934202D019700133FAE770470000001600007700000000000000B5116A25003C0101EEDBC9B970
:4014C000AA9B8E82766B60564D443B332C241D17100A044300000000F8B5C046F8BC08BC9E46704729010000B1020000F8B5C046F8BC08BC9E46704701010000101500008C
:40150000B8000020A8000000F80000000000000000000000A8140000415352363530312D3230313831303233415352363530312D3230313831303233AC14000001000000D6
:401540000000E02EC05D00001800000000366E01040404000000000000000000000000000000000000000000000000000000000000000000D3140000000000000000000090
:4015800000000000000000000000000000000000000000000000000000000000000000000000000000000000000000000000000000000000FC00002000000000000000000F
:4015C00000000000000000000000000000000000000000000000000000000000000000000000000000000000000000000000000000000000000000000000000000000000EB
:4016000000000000000000000000000000000000000000000000000000000000000000000000000000000000000000000000000000000000000000000000000000000000AA
:40164000000000000000000000000000000000000000000000000000000000000000000000000000000000000000000000000000000000000000000000000000000000006A
:40168000000000000000000000000000000000000000000000000000000000000000000000000000000000000000000000000000000000000000000000000000000000002A
:020000040001F9
:40FFC0000000000000000000000000000000000000000000010000000000000000000000000000000000000000000000000000000000000000000000000000000000000000
:0200000490303A
:02000000E91BFA
:0200000490402A
:4000000000000000000000000000000000000000000000000000000000000000000000000000000000000000000000000000000000000000000000000000000000000000C0
:0200000490501A
:0C0000000002256A11B500012570FAD03D
:0200000490600A
:0100000001FE
:00000001FF